{
  "_format": "hh-sol-artifact-1",
  "contractName": "AirspaceAuction",
  "sourceName": "contracts/airspaceContract.sol",
  "abi": [
    {
      "inputs": [],
      "stateMutability": "nonpayable",
      "type": "constructor"
    },
    {
      "anonymous": false,
      "inputs": [
        {
          "indexed": false,
          "internalType": "address",
          "name": "winner",
          "type": "address"
        },
        {
          "indexed": false,
          "internalType": "uint256",
          "name": "amount",
          "type": "uint256"
        }
      ],
      "name": "AuctionEnded",
      "type": "event"
    },
    {
      "anonymous": false,
      "inputs": [
        {
          "indexed": false,
          "internalType": "address",
          "name": "bidder",
          "type": "address"
        },
        {
          "indexed": false,
          "internalType": "uint256",
          "name": "amount",
          "type": "uint256"
        }
      ],
      "name": "BidPlaced",
      "type": "event"
    },
    {
      "inputs": [
        {
          "internalType": "address",
          "name": "",
          "type": "address"
        }
      ],
      "name": "bids",
      "outputs": [
        {
          "internalType": "uint256",
          "name": "",
          "type": "uint256"
        }
      ],
      "stateMutability": "view",
      "type": "function"
    },
    {
      "inputs": [],
      "name": "endAuction",
      "outputs": [],
      "stateMutability": "nonpayable",
      "type": "function"
    },
    {
      "inputs": [],
      "name": "highestBid",
      "outputs": [
        {
          "internalType": "uint256",
          "name": "",
          "type": "uint256"
        }
      ],
      "stateMutability": "view",
      "type": "function"
    },
    {
      "inputs": [],
      "name": "highestBidder",
      "outputs": [
        {
          "internalType": "address",
          "name": "",
          "type": "address"
        }
      ],
      "stateMutability": "view",
      "type": "function"
    },
    {
      "inputs": [],
      "name": "owner",
      "outputs": [
        {
          "internalType": "address",
          "name": "",
          "type": "address"
        }
      ],
      "stateMutability": "view",
      "type": "function"
    },
    {
      "inputs": [],
      "name": "placeBid",
      "outputs": [],
      "stateMutability": "payable",
      "type": "function"
    }
  ],
  "bytecode": "0x608060405234801561001057600080fd5b50336000806101000a81548173ffffffffffffffffffffffffffffffffffffffff021916908373ffffffffffffffffffffffffffffffffffffffff1602179055506108f8806100606000396000f3fe6080604052600436106100555760003560e01c806362ea82db1461005a5780638da5cb5b1461009757806391f90157146100c2578063d57bde79146100ed578063ecfc7ecc14610118578063fe67a54b14610122575b600080fd5b34801561006657600080fd5b50610081600480360381019061007c91906105c7565b610139565b60405161008e91906107be565b60405180910390f35b3480156100a357600080fd5b506100ac610151565b6040516100b9919061071a565b60405180910390f35b3480156100ce57600080fd5b506100d7610175565b6040516100e4919061071a565b60405180910390f35b3480156100f957600080fd5b5061010261019b565b60405161010f91906107be565b60405180910390f35b6101206101a1565b005b34801561012e57600080fd5b50610137610380565b005b60036020528060005260406000206000915090505481565b60008054906101000a900473ffffffffffffffffffffffffffffffffffffffff1681565b600160009054906101000a900473ffffffffffffffffffffffffffffffffffffffff1681565b60025481565b60025434116101e5576040517f08c379a00000000000000000000000000000000000000000000000000000000081526004016101dc9061079e565b60405180910390fd5b600073ffffffffffffffffffffffffffffffffffffffff16600160009054906101000a900473ffffffffffffffffffffffffffffffffffffffff1673ffffffffffffffffffffffffffffffffffffffff16146102a757600160009054906101000a900473ffffffffffffffffffffffffffffffffffffffff1673ffffffffffffffffffffffffffffffffffffffff166108fc6002549081150290604051600060405180830381858888f193505050501580156102a5573d6000803e3d6000fd5b505b33600160006101000a81548173ffffffffffffffffffffffffffffffffffffffff021916908373ffffffffffffffffffffffffffffffffffffffff1602179055503460028190555034600360003373ffffffffffffffffffffffffffffffffffffffff1673ffffffffffffffffffffffffffffffffffffffff168152602001908152602001600020600082825461033e91906107ea565b925050819055507f3fabff0a9c3ecd6814702e247fa9733e5d0aa69e3a38590f92cb18f623a2254d3334604051610376929190610735565b60405180910390a1565b60008054906101000a900473ffffffffffffffffffffffffffffffffffffffff1673ffffffffffffffffffffffffffffffffffffffff163373ffffffffffffffffffffffffffffffffffffffff161461040e576040517f08c379a00000000000000000000000000000000000000000000000000000000081526004016104059061075e565b60405180910390fd5b600073ffffffffffffffffffffffffffffffffffffffff16600160009054906101000a900473ffffffffffffffffffffffffffffffffffffffff1673ffffffffffffffffffffffffffffffffffffffff1614156104a0576040517f08c379a00000000000000000000000000000000000000000000000000000000081526004016104979061077e565b60405180910390fd5b60008054906101000a900473ffffffffffffffffffffffffffffffffffffffff1673ffffffffffffffffffffffffffffffffffffffff166108fc6002549081150290604051600060405180830381858888f19350505050158015610508573d6000803e3d6000fd5b507fdaec4582d5d9595688c8c98545fdd1c696d41c6aeaeb636737e84ed2f5c00eda600160009054906101000a900473ffffffffffffffffffffffffffffffffffffffff1660025460405161055e929190610735565b60405180910390a16000600160006101000a81548173ffffffffffffffffffffffffffffffffffffffff021916908373ffffffffffffffffffffffffffffffffffffffff1602179055506000600281905550565b6000813590506105c1816108ab565b92915050565b6000602082840312156105d957600080fd5b60006105e7848285016105b2565b91505092915050565b6105f981610840565b82525050565b600061060c6025836107d9565b91507f4f6e6c7920746865206f776e65722063616e2063616c6c20746869732066756e60008301527f6374696f6e0000000000000000000000000000000000000000000000000000006020830152604082019050919050565b60006106726019836107d9565b91507f41756374696f6e20686173206e6f7420656e64656420796574000000000000006000830152602082019050919050565b60006106b2602f836107d9565b91507f426964206d75737420626520686967686572207468616e20746865206375727260008301527f656e7420686967686573742062696400000000000000000000000000000000006020830152604082019050919050565b61071481610872565b82525050565b600060208201905061072f60008301846105f0565b92915050565b600060408201905061074a60008301856105f0565b610757602083018461070b565b9392505050565b60006020820190508181036000830152610777816105ff565b9050919050565b6000602082019050818103600083015261079781610665565b9050919050565b600060208201905081810360008301526107b7816106a5565b9050919050565b60006020820190506107d3600083018461070b565b92915050565b600082825260208201905092915050565b60006107f582610872565b915061080083610872565b9250827fffffffffffffffffffffffffffffffffffffffffffffffffffffffffffffffff038211156108355761083461087c565b5b828201905092915050565b600061084b82610852565b9050919050565b600073ffffffffffffffffffffffffffffffffffffffff82169050919050565b6000819050919050565b7f4e487b7100000000000000000000000000000000000000000000000000000000600052601160045260246000fd5b6108b481610840565b81146108bf57600080fd5b5056fea264697066735822122088a075f32b00aafabe613eac22cf490260e6e999682fa1a8dae8d2a61062673e64736f6c63430008000033",
  "linkReferences": {},
  "deployedLinkReferences": {}
}